:100000006F00C073000000004A0100004E010000B4
:1000100000000000000000000000000000000000E0
:1000200000000000000000000000000000000000D0
:100030000A070000000000000C070000000000009C
:100040000E07000010070000120700001407000050
:1000500016070000180700001A0700001C07000020
:100060001E070000200700002207000024070000F0
:1000700026070000280700002A0700002C070000C0
:100080002E07000030070000320700003407000090
:1000900036070000380700003A07000000000000A3
:1000A000511126C022C206C4828282441244A24058
:1000B000310182802A86014593F6150091C232955E
:1000C00085810606F5F9828000000000634E050276
:1000D00063C305042E86AA857D5515C285466378BF
:1000E000B6006356C00006068606E36CB6FE014500
:1000F00063E4C500918D558D85820582F5FA828075
:100100008682C93F2E8582823305A04063D70500D1
:10011000B305B040C1B7B305B0408682653F330533
:10012000A0408282868263C70500634905005D376F
:100130002E858282B305B040E35B05FE3305A04007
:10014000513F3305B040828200007300203001A08F
:10015000EFF21FF51165111185451305050202C067
:1001600002C202C402C602C802CA02CCEF00D00911
:10017000930700027C80371401408D473EC28A8578
:10018000E147130504403EC4052D930700047C801D
:100190008A859147130504403EC4392DF1673744E1
:1001A0000140938707203EC66C00B7070C0013057B
:1001B00004803ECA02C8231C0100EF00D00685451A
:1001C00013050480EF00F0127101C5B58147138754
:1001D0004181D1463306F700230006008507E39BE3
:1001E000D7FE8280EFF2DFEBD5373744014093042E
:1001F0000480930500022685EF0010127DD91305B7
:100200000480EF00F010131485016184B547E30EFC
:10021000F4FC13854181EF1000022947AA8463157D
:10022000E400630685025D37EF00107C229503072A
:1002300015001377770955DB1385418129472695EA
:100240006375970061371385418100A179BFB1BD06
:10025000EFF21FE571112AC0EF00F07DA947631C82
:10026000F504B747014001449384078082472685FF
:100270003387870083050700C205C181EF00D008DE
:10028000930500082685EF0030097DD9050429472C
:10029000E31EE4FCB7470140A945138507803744B6
:1002A0000140EF00700613040480930500082285C6
:1002B000EF0090067DD91101CDBB9307F00F63E5E8
:1002C000A70263E3B702EFF2BFDD5111AE86B715A7
:1002D00000003287938505412A860A85EF00706900
:1002E0000A85BD373101D1B38280EFF27FDB711116
:1002F00041468A852A84EF10C00D824763938700A8
:100300007D5511015DB3EFF2BFD941112A848545B6
:100310001305400302C202C402C6EF00E06E854628
:10032000814403D7A180A68719C3BD47858F3707AE
:100330000020930507008E07BE95CE211307070006
:1003400041456C82B375D40091E11145BA972AC634
:1003500088438D452EC44C0036C0B9298246850499
:10036000C1478606E39FF4FA410181B3EFF25FD300
:1003700061112E87B376B5008544014403D6A18070
:10038000A28719C2BD47818F337697001DC293950E
:100390003700B707002093870700AE97CE23884326
:1003A00033F696003336C0003AC236C0F521124704
:1003B00082460504C1478604E312F4FC2101F5B12D
:1003C000EFF21FCE41112AC002C4231601003800EB
:1003D0008544014483D5A180228699C13D46018E82
:1003E000824713C5F7FF658D09CD93153600370693
:1003F0000020130606002E964E2208423AC24129DA
:1004000012471223331585003AC2518D0AA30545C0
:10041000EF0060740504414686041247E31CC4FAE9
:1004200009079307E100E395E7FA3C8438863485B1
:1004300033E5E700758DF98F5D8D4101BDB1EFF2B8
:100440003FC6311109450523992CE12D113385450E
:1004500005455D2B37053000854513050540912185
:1004600003D5818013848180793D37150000130501
:100470000542EF007052BD33938541810946280043
:100480009384418102C402C623180100EF00D05BAF
:100490002800A13D9385340015462AC22800EF00AC
:1004A000B05A28009935938564002AC0294628004F
:1004B000EF0090592800153D92477D57AA84E38CA0
:1004C000E7FA8246E389E6FAE307E5FA03D6C18054
:1004D0001387C1806301F6021306E00F638DC70026
:1004E0001316050193950601139507014182C181F9
:1004F0004181E13349B71146638EC6086349D6048A
:100500008547638CF60663CED700B5F6C204C1807A
:1005100006A3850413960401418281451305E00F6B
:10052000C9BF89476380F6068D47E396F6F40A2033
:100530009387018186A369359384E1809387018144
:100540008AA00E208A231D3592208D450DA81946BC
:10055000638DC60463C7C6043D46638FC604930714
:10056000F00FE39AF6F0370530008145130505409A
:100570000D2E814505454929FDBD122085451305F0
:10058000F00F85BF1395040141810AA0AD3B1220F5
:100590008945F5B70A202D352A862397A1809145F4
:1005A000F9BF03D601819545D9BF0A2023959180D3
:1005B000993B12209945E1B7231007002398018049
:1005C00001453EC023950180231004002D3B824746
:1005D0001307E00FE391E7EA139604014182BD455A
:1005E00035BFB71702409843B706FFFC13671700E3
:1005F00098C3D843758FD8C39843B706F7FEFD1646
:10060000758F98C39843B706FCFFFD16758F98C386
:10061000D843C176FD16758FD8C337079F0098C79A
:10062000984F1367070298CF3717014003260740FA
:10063000930507401376F6F02320C74003260740B2
:10064000136606082320C740094798C93727024088
:100650001043719A10C310431366160010C3D84399
:10066000D8C3D843F98ED4C3D843B7060001D8C342
:100670009843558F98C3984393166700E3DD06FEB1
:10068000D843B7160240719BD8C3D84313672700DD
:10069000D8C32147DC42B18BE39EE7FE8280EFF2B4
:1006A0003FA0371702405C43370400209146B18BCE
:1006B000130404096385D700A1466380D704B737C4
:1006C0006E01938707601CC0B7160240DC420840E9
:1006D000918313F7F700B707002093870708BA97AD
:1006E0008C23DC4293F5F50F93F707083357B500D9
:1006F00099E3CD322A8718C04DBA5C43B777DC0244
:10070000938707C0C9B701A001A001A001A001A063
:1007100001A001A001A001A001A001A001A001A0D1
:1007200001A001A001A001A001A001A001A001A0C1
:1007300001A001A001A001A001A001A0970100203B
:100740009381C134138181D717150000130585E209
:10075000970500209385058B1386818063FAC50079
:100760008322050023A0550011059105E3EAC5FE8B
:1007700013858180938501836377B500232005006D
:100780001105E36DB5FE93020008739002308D42AF
:1007900073904280970200009382C28693E23200F7
:1007A00073905230EFF0FFE397020000938262C92A
:1007B00073901234730020309C45611122C226C010
:1007C00013F7070113F3F70001C7D8413363E300C0
:1007D00092211377F60F29C78323050001471304DD
:1007E0008002930480048546B395E600B376B60094
:1007F0006392D50293122700BD46B396560093C666
:10080000F6FFB3F37600B3125300B3E372006397BD
:1008100087064CC90507A146E317D7FC23207500BE
:100820001307F00F6378C70483234500A146130420
:100830008002930480040547B312D7003377560033
:100840006394E202139726000117BD45B395E500B6
:1008500093C5F5FFB3F375003317E300B363770077
:1008600063928702232A550085064147E395E6FCFB
:10087000232275001244824421018280E39C97F870
:100880000CC949BFE39297FE23285500F1BF0845E4
:100890006D8D3335A000828019C20CC982804CC98D
:1008A000828037030140032743009317350063D04C
:1008B0000702B707C0FFF517F98F37070007D98F71
:1008C000D9CD370700F07D17798DC98F49A8635DB1
:1008D0000500B707E0FFED17F98F37070007D98F3D
:1008E000BDCD06050581D5B7B707300093160501C4
:1008F0003376F500C1826313F602370600F97D16E0
:10090000B377C70003274300798E2322C300A1C910
:100910005581131745003395E60045BF9317B50081
:1009200063D407029357050113F6F7008D47B39779
:10093000C70093C7F7FFF98F37070007D98F85C125
:10094000135755011207C1BF558112053395A600F3
:100950009347F5FFF98F37070007D98FBDF53707A4
:1009600001405CC3828023A4A1828280EFF24FF316
:10097000371702405C4391462A84B18B6385D700C8
:10098000A146638DD706B7376E01938707601CC0F9
:10099000B7160240DC42918313F7F700B707002037
:1009A0009387870ABA978C23DC42184093F5F50F9A
:1009B00093F707083355B70081E73A85EFF08FF1D9
:1009C00048C008C448C4B7170240DC43AD83FD8B60
:1009D00013D737008A07F18BD98F93F637010D476C
:1009E0006373D700D1173707002013074709BA9759
:1009F0008C23EFF02FEE08C86FF02FEB5C43B77736
:100A0000DC02938707C061B799C5371702401C4FB6
:100A10005D8D08CF8280B7170240984F1345F5FFD0
:100A2000798D88CF8280EFF2AFE71629F577FD1731
:100A3000F58FF621DA252111D58F1EA95625FD77D0
:100A40009387379FF58FD6212A842EC0D58F962580
:100A5000D58FB625D58F5EA55E29C207C18393F7D2
:100A6000F7CF5D8F5AA948001137B74701409387E8
:100A7000078082456312F406C2475A241395170073
:100A80003E9542070E0541873E958C416358070409
:100A90008605EFF02FE4930540062AC0EFF08FE3C0
:100AA000824793144500930540063E85EFF04FE5DD
:100AB0005E24C207C18763D507020E059305400671
:100AC00013052503EFF00FE11D89C98CC204C18015
:100AD00006A461016FF06FDDB24745B78A0555BFC7
:100AE00012059305400613052503EFF0AFDE3D899F
:100AF000E9BF91C55E250967D98F5EA582805A2519
:100B0000F977FD17F98FD5BF93F5F51F4EA18280B8
:100B10004A211375F51F82800A216D8D3335A0009F
:100B20008280EFF2EFD7B707002003A50709B715BA
:100B30007A0093850520EFF0EFD91375F50F238721
:100B4000A18293175500898F8A073E950E0523963B
:100B5000A1826FF08FD5EFF2AFD437F400E05C40A4
:100B6000AA85F99B5CC003C5E182EFF0AFD408C849
:100B7000232404001C4093E717001CC0B7F700E0D3
:100B8000D843058B75DF9843799B98C36FF0EFD1FD
:100B9000EFF20FD17111AE840144635DC402B74717
:100BA0000140138707803A859305000432C0AD37B2
:100BB000B747014013870780024675D53387840005
:100BC00083050700138507800504C205C1812D3FF9
:100BD0000246E1B7328511016FF02FCD411106C6F3
:100BE0002EC00DCD1841AA8705C358417D5511CBA4
:100BF0008546631BD70098472300070023A2070000
:100C00000545B240410182809847824614A3984727
:100C1000050798C7D8437D17D8C3DDB705468A8531
:100C2000853FF9BF011122CC2EC206CE26CA2A84E6
:100C3000814793050002634506029245BE95838570
:100C400005008DE563D8C70263D4E702198E13054A
:100C5000000293F526002AC089C501E79305000329
:100C60002EC0858A814495EAB2840DA08507F1B72C
:100C70001D8EF1BF0146E1BF824522853AC832C6CA
:100C80003EC4A93FA24732464247FD14E34690FEC8
:100C9000B284635306008144058E63C7E702A687CA
:100CA00092463387974036978305070095EDB284C7
:100CB00063449004635306000146F2406244D24408
:100CC0003305F600056182801D8FBA879305000306
:100CD000228532C83EC63AC41137B247224742463F
:100CE000FD17EDF7BA9465BF228532C63EC4FD35C7
:100CF000A247324685076DB78245228532C43EC27F
:100D0000F13DFD142246924765B7397106DE22DCBB
:100D100026DA3EC232833A8689ED92469307000373
:100D200001476C08FC86FD3DF2506254D2542161AB
:100D30008280AA843684AE8791CA2947014463170A
:100D4000E30063D50500B307B04005448646A30918
:100D5000010213073103938666FC36C49A853E85EB
:100D600032CA3AC81AC63EC0EFF08FB9A5468247CC
:100D700032434247524663D4A600A2463695130535
:100D800005039306F7FFA30FA7FE9A853E8532CC95
:100D90003ACA1AC83EC636C0EFF0CFB3B247424394
:100DA0005247624663F9670401CC29CA9247898B8E
:100DB000B1C79305D002268532C40D3522467D1673
:100DC0009247918B95C306479307100632C493054B
:100DD00000032685631EF7021135930580072685DB
:100DE000F53B224609047916164792468245268528
:100DF000153D229515BFAA8702478DB782469307F6
:100E0000D0020144A38FF6FE9307E7FF3EC04DBF1B
:100E1000F13393058005E1B7014582800145828069
:100E2000130181FD22D026CE06D22AC4AE8232849E
:100E300002C681448385020089EDA24781C78145AE
:100E40003E85693B925002542685F244130181028B
:100E50008280930750026388F500224516C88504F6
:100E6000B53BC24239A88387120013871200639CE6
:100E7000B7002245930550023AC88D334247850496
:100E8000BA82850245BFD5DB9306B0026389D704D9
:100E900063C8F600930630026386D704814705A035
:100EA0009306D002638AD70093060003E398D7FE27
:100EB00013872200894721A01387220085478306D4
:100EC00007001306B0026383C6046341D60213060B
:100ED0003002638BC602BA820145A54681A0138702
:100EE00022006DBF138722009147D1BF1306D002A5
:100EF0006389C60013060003E39FC6FC93E727003F
:100F000031A005078547C1BF93E747000507E1B753
:100F100013162500329506053A95850203860200D0
:100F2000130706FD9375F70FE3F4B6FE1307E0020F
:100F30009946631EE60085028146A54503860200A8
:100F4000130606FD1377F60F63F5E50236C6038731
:100F500002001306A006630DC70A6343E6021306E8
:100F6000C0046307C70A13068006630CC7088145DF
:100F70002DA813972600BA968606B29685027DBFE5
:100F8000130640076306C7081306A0076302C708D5
:100F90001306C0068145631AC700038612008D45FB
:100FA0006314E600850291458502038602009303DF
:100FB00000061307100663C4C3001307100493034D
:100FC000700663C4C30693035006635376189303F5
:100FD000700463C1C30493055004635BB616130722
:100FE0003004E310E6EA18409303440016CA230CC9
:100FF000E1001EC8A30C01000147BE862A862C080A
:1010000049A8038612008145E311E6FA890271BFFF
:101010008502B1BF93063006E307D6FC63CEC60651
:10102000930680056303D602A9BD930630076304C7
:10103000D60463CBC6029306F0066302D60E93066F
:10104000000793E74700E31ED6E29146639FD50A67
:10105000930384000C40504016CA3AC23EC01EC8DA
:10106000AA870147C146B9A0930650076308D60670
:101070009306800745BF1840B7160000930344004D
:101080009385064511C3BA85324716CA1EC8BE8667
:101090002A862245413E0DA091466394D5029303D2
:1010A00084000C40504016CA3AC23EC01EC8AA87EF
:1010B0000547A94622458D33C243AA941E84D242D5
:1010C000C9B3B2460C4016C836C23AC011042A87CA
:1010D0008546294622451539AA9461B39146639DF8
:1010E000D500930384000C40504016CA3AC23EC05B
:1010F0001EC8AA87014775BFB2460C4016C836C243
:101100003AC011042A878146E9B7B24616C80C4096
:10111000414636C23AC011042A87814665BF9146CE
:10112000639ED500930384000C40504016CA3AC217
:101130003EC01EC8AA870147A146ADBFB2460C40BB
:1011400016C836C23AC011042A878146214659B7CB
:101150000C401306840040403AC22A87224532C818
:101160003EC02286B687A94616CA4D39AA94424483
:10117000B9B7130141FD32CE3ED42AC67008FD57DF
:10118000480006CC36D03AD202C23EC432C04939F9
:10119000E2401301C1028280411122C426C206C668
:1011A0001C21AA840144DC8183073100050499EFE6
:1011B000A9479305310005460145DC81EFF05F9DAD
:1011C0002285B24022449244410182800546930523
:1011D00031000145EFF0DF9BB38784009C23DC8165
:1011E000E1B70325C50E828097F7FF1F9387070A93
:1011F0009C439C5389E797F7FF1F938727EC03A530
:10120000C70E828091ED71118A85014501CA795519
:1012100091C61C229CC108223335A0001101828096
:10122000014509CA795599C61C229CC1082233354B
:10123000A00082808280AA87850703C7F7FF6DFF21
:101240003385A7407D158280AA8709CA850503C713
:10125000F5FF85077D16A38FE7FE65FB3E9663933A
:10126000C70082808507A38F07FED5BF130141FD0C
:1012700026D006D422D22AC62EC032C2AE8413840F
:1012800014008347F4FF3A8536CA3EC83AC4913FFA
:10129000C2472247D2463E950C31A189E1E11307AE
:1012A000D002639FE70A1C20054613842400638C48
:1012B000061041476390E60213070003639CE700B2
:1012C0001C201307800593F7F70D6399E70E1C3078
:1012D000C1460904B704008019E293C4F4FFB6853F
:1012E00026853ECC32CA36C8EFE09FE1C2462AC40A
:1012F0002685B685EFE01FDEE2475246C246AA8247
:10130000814501456547938307FD25436378730055
:101310009383F7FB63607706938397FC63D3D306CD
:10132000FD576389F502FD5563E6A2026395A200AD
:10133000A24763C17702AA8536851ECE16CC32CA73
:1013400036C8EFE03FD7F243E2425246C2461E950E
:101350008545654705048347F4FF75B7A28405B743
:101360001307B0026384E700014691B71C20138481
:101370002400DDBF9383F7F963657700938397FAC1
:1013800071BFFD57639FF500324793072002268502
:101390001CC3924789EFA250125482541301C10218
:1013A000828019C23305A0409247F5D781C59307C3
:1013B000F4FF3EC09247024798C3F1BF9307000372
:1013C00091FAA14601BF13070003E38BE7EEA9469C
:1013D00011B797F7FF1F938767EB9C43B28698532B
:1013E00009E717F7FF1F130767CD2E86AA853E85ED
:1013F000B5BD89CD9307F00F63F7C7009307A00829
:101400001CC17D55828090A1054582800145828066
:10141000253032582D253032582D253034580000D3
:10142000646562756720626F617264206669726DBF
:10143000776172652076312E3720286329636865CD
:10144000727279207465636820323032330A00008A
:10145000286E756C6C29000043000000504F534902
:1014600058000000000000002E0000000020202096
:101470002020202020202828282828202020202044
:101480002020202020202020202020202088101014
:101490001010101010101010101010101004040470
:1014A000040404040404041010101010101041412E
:1014B000414141410101010101010101010101011C
:1014C0000101010101010101101010101010424230
:1014D00042424242020202020202020202020202EC
:1014E000020202020202020210101010200000008C
:1014F00000000000000000000000000000000000EC
:1015000000000000000000000000000000000000DB
:1015100000000000000000000000000000000000CB
:1015200000000000000000000000000000000000BB
:1015300000000000000000000000000000000000AB
:10154000000000000000000000000000000000009B
:10155000000000000000000000000000000000008B
:10156000000000000000000000000000000000007B
:1015700000140140010000000010014001000000C3
:1015800000080140040000000008014002000000C3
:101590000014014080000000001401401000000011
:1015A0000014014008000000001401400400000085
:1015B00000100140800000000010014040000000C9
:1015C0000010014020000000001001401000000049
:1015D000001001400800000000100140040000005D
:1015E0000010014002000000001401400200000051
:1015F00001020304050607080102030405060708A3
:10160000006CDC020204060804080C100810182004
:1016100010203040204060800102030405060708C6
:101620000102030405060708430000000000000053
:1016300000000000000000000000000000000000AA
:101640000000000000000000430000000000000057
:10165000000000000000000000000000000000008A
:101660000000000000000000430000000000000037
:10167000000000000000000000000000000000006A
:101680000000000000000000430000000000000017
:10169000000000000000000000000000000000004A
:1016A00000000000000000004300000000000000F7
:1016B000000000000000000000000000000000002A
:1016C00000000000000000004300000000000000D7
:1016D000000000000000000000000000000000000A
:1016E00000000000000000004300000000000000B7
:1016F00000000000000000000000000000000000EA
:101700000000000000000000F213000004120000BE
:10171000000000006C140000681400006414000055
:1017200064140000641400006414000064140000D9
:1017300064140000641400006414000064140000C9
:10174000FFFFFFFFFFFFFFFFFFFFFFFFFFFF0000A7
:10175000010041534349490000000000000000001F
:101760000000000000000000000000000000000079
:101770000000415343494900000000000000000000
:101780000000000000000000000000000000000059
:101790000000000000000000000000000000000049
:1017A0000000000000000000000000000000000039
:1017B0000000000000000000000000000000000029
:1017C0000000000000000000000000000000000019
:1017D0000000000000000000000000000000000009
:1017E00000000000000000000000000000000000F9
:1017F00000000000000000002402002000000000A3
:00000001FF
