:100000006F00E044000000004A0100004E010000C3
:1000100000000000000000000000000000000000E0
:1000200000000000000000000000000000000000D0
:100030001C040000000000001E040000000000007E
:100040002004000022040000240400002604000014
:10005000280400002A0400002C0400002E040000E4
:1000600030040000320400003404000036040000B4
:10007000380400003A0400003C0400003E04000084
:100080004004000042040000440400004604000054
:10009000480400004A0400004C0400000000000076
:1000A000511126C022C206C4828282441244A24058
:1000B000310182802A86014593F6150091C232955E
:1000C00085810606F5F9828000000000634E050276
:1000D00063C305042E86AA857D5515C285466378BF
:1000E000B6006356C00006068606E36CB6FE014500
:1000F00063E4C500918D558D85820582F5FA828075
:100100008682C93F2E8582823305A04063D70500D1
:10011000B305B040C1B7B305B0408682653F330533
:10012000A0408282868263C70500634905005D376F
:100130002E858282B305B040E35B05FE3305A04007
:10014000513F3305B040828200007300203001A08F
:10015000EFF21FF51165111185451305050202C067
:1001600002C202C402C602C802CA02CCC923930753
:1001700000027C80371401408D473EC28A85E147EA
:10018000130504403EC42521930700047C808A8522
:100190009147130504403EC41929F16737440140D3
:1001A000938707203EC66C00B7070C001305048038
:1001B0003ECA02C8231C0100512B8545130504804B
:1001C000912D7101DDB5EFF2BFED41112A84AE84AE
:1001D00013054003854532C002C202C402C6812B0A
:1001E00002468D474C002285648232C63EC4C12639
:1001F000410165BDEFF2DFEA7111094549294D2A38
:10020000352D7165130505207D25B707002083A5D1
:100210000701371500001305C5F6EF00304D552CCA
:10022000AA85371500001305C5F7EF00304C85454A
:1002300013050002ED29371501404146914513058C
:10024000054051373137371500001305C5F8EF0069
:10025000104C692413070002E14611468945054503
:10026000D5242AC0492C024591477D1563EFA7008C
:100270008567938787F50A053E951C418287371568
:1002800000001305C5F9EF007046AD2CAA8537159F
:100290000000130585FEEF007045371500001305BB
:1002A00005FFEF00B04437140140054691451305A2
:1002B0000440C92E13054006C1231305044001461E
:1002C0009145C9261305800C452BF1BF3715000059
:1002D0001305C5FA4DBF37150000130585FB65B73B
:1002E00037150000130585FC79BF3715000013058D
:1002F00085FD51BFB71702409843B706FFFC13674F
:10030000170098C3D843758FD8C39843B706F7FE34
:10031000FD16758F98C39843B706FCFFFD16758FC1
:1003200098C3D843C176FD16758FD8C337079F0091
:1003300098C7984F1367070298CF371701400326D5
:100340000740930507401376F6F02320C7400326A5
:100350000740136606082320C740094798C9372776
:1003600002401043719A10C310431366160010C365
:10037000D843D8C3D843F98ED4C3D843B7060001B5
:10038000D8C39843558F98C3984393166700E3DD0D
:1003900006FED843B7160240719BD8C3D8431367F3
:1003A0002700D8C32147DC42B18BE39EE7FE828061
:1003B000EFF21FCF371702405C433704002091460D
:1003C000B18B130404016385D700A1466380D70471
:1003D000B7376E01938707601CC0B7160240DC4236
:1003E0000840918313F7F700B707002093870700B1
:1003F000BA978C23DC4293F5F50F93F70708335730
:10040000B50099E3C1392A8718C045B15C43B77775
:10041000DC02938707C0C9B701A001A001A001A019
:1004200001A001A001A001A001A001A001A001A0C4
:1004300001A001A001A001A001A001A001A001A0B4
:1004400001A001A001A001A001A001A001A09701AD
:1004500000209381A13E138181FC17150000130534
:10046000A5BA970500209385E5B917060020130665
:10047000E6BC63FAC5008322050023A055001105E0
:100480009105E3EAC5FE17050020130525BB9385FA
:1004900081806377B500232005001105E36DB5FE6B
:1004A00093020008739002308D427390428097024D
:1004B0000000938222B593E2320073905230EFF045
:1004C0007FE397020000938222D37390123473006B
:1004D0002030B7F7FF1F03A5477C8280B707674529
:1004E00037270240938737125CC3B797EFCD9387C6
:1004F000B79A5CC38280372702401C4B93E70708FA
:100500001CCB8280B7270240C84F098182803727E1
:1005100002405C470545858B91E748474189133583
:1005200015000D058280EFF2BFB72A84CD378547CD
:100530006318F50019E0154529A0D13F7D14C5BF0A
:100540007DD8A5B6EFF2DFB54111B2843706674515
:100550002AC62EC436C23AC03724024013063612C9
:1005600010C43796EFCD1306B69A10C40965653FDF
:10057000114602479246A245B2476318C502104889
:100580005D8FD98DCD8C13660601C58EB70700200F
:1005900010C893E6060C2391D78009656937954703
:1005A0006305F5001C48BD9B1CC84101FDBC9C4572
:1005B000611122C226C013F7070113F3F70001C728
:1005C000D8413363E30092211377F60F29C78323C1
:1005D0000500014713048002930480048546B39507
:1005E000E600B376B6006392D50293122700BD46AB
:1005F000B396560093C6F6FFB3F37600B3125300DA
:10060000B3E37200639787064CC90507A146E31759
:10061000D7FC232075001307F00F6378C7048323EA
:100620004500A14613048002930480040547B312D9
:10063000D700337756006394E20213972600011720
:10064000BD45B395E50093C5F5FFB3F375003317CA
:10065000E300B363770063928702232A550085067F
:100660004147E395E6FC23227500124482442101B0
:100670008280E39C97F80CC949BFE39297FE232838
:100680005500F1BF19C20CC982804CC98280B707DE
:10069000002023ACA7028280EFF29FA03717024010
:1006A0005C4391462A84B18B6385D700A146638A57
:1006B000D706B7376E01938707601CC0B716024094
:1006C000DC42918313F7F700B70700209387870276
:1006D000BA978C23DC42184093F5F50F93F707087F
:1006E0003355B70099E33A85F53248C008C448C489
:1006F000B7170240DC43AD83FD8B13D737008A0761
:10070000F18BD98F93F637010D476373D700D1175B
:100710003707002013074701BA978C23653A08C8AA
:1007200069B25C43B777DC02938707C079B799C594
:10073000371702401C4F5D8D08CF8280B7170240EB
:10074000984F1345F5FF798D88CF8280EFF25F9542
:100750001629F577FD17F58FF621DA252111D58FAA
:100760001EA95625FD779387379FF58FD6212A84BA
:100770002EC0D58F9625D58FB625D58F5EA55E293F
:10078000C207C18393F7F7CF5D8F5AA94800293775
:10079000B74701409387078082456310F406C2473C
:1007A0005A24139517003E9542070E0541873E9542
:1007B0008C41635607048605313A930540062AC0EA
:1007C000EFF05F91824793144500930540063E8504
:1007D000053A5E24C207C18763D507020E0593055B
:1007E000400613052503EFF0FF8E1D89C98CC20456
:1007F000C18006A461016FF05F8BB24755B78A05CF
:1008000065BF12059305400613052503EFF09F8C85
:100810003D89E9BF91C55E250967D98F5EA58280B4
:100820005A25F977FD17F98FD5BF93F5F51F4EA11E
:1008300082800A216D8D3335A0008280EFF25F86C1
:10084000B707002003A50701B7157A009385052097
:10085000EFF05F881375F50FB7070020238FA7020D
:1008600093175500898F8A073E950E05B70700201C
:10087000239EA7026FF07F83EFF29F8237F400E0A0
:100880005C40AA85F99B5CC0B707002003D5C7036D
:10089000EFF05F8208C8232404001C4093E7170090
:1008A0001CC0B7F700E0D843058B75DF9843799BF0
:1008B00098C36FF08FFFEFF2AFFE2A84116511111C
:1008C000854513050502A535930700027C80371581
:1008D00001408D473EC28A85E147130505403EC46D
:1008E000F93122C637440140B70708006C001305F0
:1008F00004803ECA02C8231C0100893D85451305BA
:100900000480093F71016FF04FFAEFF26FF9711136
:10091000AE840144635DC402B7470140138707807A
:100920003A859305000432C02937B7470140138741
:100930000780024675D53387840083050700138539
:1009400007800504C205C181CD350246E1B7328575
:1009500011016FF08FF5411106C62EC00DCD184163
:10096000AA8705C358417D5511CB8546631BD70027
:1009700098472300070023A207000545B240410124
:1009800082809847824614A39847050798C7D843A2
:100990007D17D8C3DDB705468A85853FF9BF0111AC
:1009A00022CC2EC206CE26CA2A8481479305000295
:1009B000634506029245BE95838505008DE563D8A3
:1009C000C70263D4E702198E1305000293F52600CF
:1009D0002AC089C501E7930500032EC0858A81449A
:1009E00095EAB2840DA08507F1B71D8EF1BF0146CF
:1009F000E1BF824522853AC832C63EC4A93FA2471C
:100A000032464247FD14E34690FEB284635306002B
:100A10008144058E63C7E702A687924633879740D5
:100A200036978305070095EDB284634490046353C1
:100A300006000146F2406244D2443305F6000561E7
:100A400082801D8FBA8793050003228532C83EC677
:100A50003AC41137B24722474246FD17EDF7BA9420
:100A600065BF228532C63EC4FD35A24732468507A2
:100A70006DB78245228532C43EC2F13DFD14224647
:100A8000924765B7397106DE22DC26DA3EC2328330
:100A90003A8689ED92469307000301476C08FC866D
:100AA000FD3DF2506254D25421618280AA84368482
:100AB000AE8791CA294701446317E30063D5050057
:100AC000B307B04005448646A3090102130731036A
:100AD000938666FC36C49A853E8532CA3AC81AC6E1
:100AE0003EC0EFF0EFE1A54682473243424752460F
:100AF00063D4A600A2463695130505039306F7FFB7
:100B0000A30FA7FE9A853E8532CC3ACA1AC83EC6C4
:100B100036C0EFF02FDCB24742435247624663F9DA
:100B2000670401CC29CA9247898BB1C79305D002CB
:100B3000268532C40D3522467D169247918B95C38A
:100B400006479307100632C4930500032685631EEB
:100B5000F7021135930580072685F53B22460904E7
:100B600079161647924682452685153D229515BF72
:100B7000AA8702478DB782469307D0020144A38F0C
:100B8000F6FE9307E7FF3EC04DBFF13393058005A6
:100B9000E1B70145828001458280130181FD22D0A9
:100BA00026CE06D22AC4AE82328402C68144838510
:100BB000020089EDA24781C781453E85693B92507D
:100BC00002542685F2441301810282809307500269
:100BD0006388F500224516C88504B53BC24239A892
:100BE0008387120013871200639CB7002245930588
:100BF00050023AC88D3342478504BA82850245BF08
:100C0000D5DB9306B0026389D70463C8F600930668
:100C100030026386D704814705A09306D002638A19
:100C2000D70093060003E398D7FE13872200894775
:100C300021A0138722008547830607001306B00210
:100C40006383C6046341D60213063002638BC60277
:100C5000BA820145A54681A0138722006DBF138784
:100C600022009147D1BF1306D0026389C600130644
:100C70000003E39FC6FC93E7270031A005078547E3
:100C8000C1BF93E747000507E1B71316250032956A
:100C900006053A95850203860200130706FD937543
:100CA000F70FE3F4B6FE1307E0029946631EE60071
:100CB00085028146A54503860200130606FD1377CB
:100CC000F60F63F5E50236C6038702001306A00699
:100CD000630DC70A6343E6021306C0046307C70A2D
:100CE00013068006630CC70881452DA813972600BC
:100CF000BA968606B29685027DBF13064007630644
:100D0000C7081306A0076302C7081306C00681457B
:100D1000631AC700038612008D456314E60085023E
:100D2000914585020386020093030006130710060F
:100D300063C4C300130710049303700663C4C3069F
:100D400093035006635376189303700463C1C3047E
:100D500093055004635BB61613073004E310E6EA0C
:100D600018409303440016CA230CE1001EC8A30CCC
:100D700001000147BE862A862C0849A80386120076
:100D80008145E311E6FA890271BF8502B1BF93067E
:100D90003006E307D6FC63CEC606930680056303E0
:100DA000D602A9BD930630076304D60463CBC602FE
:100DB0009306F0066302D60E9306000793E74700FA
:100DC000E31ED6E29146639FD50A930384000C404C
:100DD000504016CA3AC23EC01EC8AA870147C14643
:100DE000B9A0930650076308D6069306800745BF4F
:100DF0001840B7160000930344009385C6FF11C343
:100E0000BA85324716CA1EC8BE862A862245413E8A
:100E10000DA091466394D502930384000C4050408A
:100E200016CA3AC23EC01EC8AA870547A94622452F
:100E30008D33C243AA941E84D242C9B3B2460C4039
:100E400016C836C23AC011042A878546294622456B
:100E50001539AA9461B39146639DD500930384002C
:100E60000C40504016CA3AC23EC01EC8AA8701476D
:100E700075BFB2460C4016C836C23AC011042A8764
:100E80008146E9B7B24616C80C40414636C23AC060
:100E900011042A87814665BF9146639ED50093035E
:100EA00084000C40504016CA3AC23EC01EC8AA87F1
:100EB0000147A146ADBFB2460C4016C836C23AC083
:100EC00011042A878146214659B70C401306840035
:100ED00040403AC22A87224532C83EC02286B687A1
:100EE000A94616CA4D39AA944244B9B71301C1FDA7
:100EF0002EC832CAAA851008014506C636CC3ACE9D
:100F00003ED032C05939B2401301410282804111B2
:100F100022C426C206C61C21AA840144DC818307A0
:100F20003100050499EFA9479305310005460145B5
:100F3000DC81EFF09F9D2285B24022449244410122
:100F400082800546930531000145EFF01F9CB38771
:100F500084009C23DC81E1B7CC020000D6020000B3
:100F6000E00200007E020000EA0200005379737480
:100F7000656D436C6B3A25640D0A00004368697027
:100F800049443A253038780D0A00000073746172C4
:100F9000742077726974652E2E2E0D00464C4153D5
:100FA000485F434F4D504C4554450000464C41531B
:100FB000485F425553590000464C4153485F4552E3
:100FC000524F525F50470000464C4153485F4552D4
:100FD000524F525F57525000464C4153485F54495C
:100FE0004D454F55540000000A0D256400000000D7
:100FF0000D0A46696E69736800000000286E756C02
:041000006C29000057
:101004000102030405060708010203040506070894
:10101400006CDC020204060804080C1008101820F6
:1010240010203040204060800102030405060708B8
:08103400010203040506070890
:00000001FF
